{
  "_format": "hh-sol-artifact-1",
  "contractName": "Inventory",
  "sourceName": "contracts/Inventory.sol",
  "abi": [
    {
      "inputs": [
        {
          "internalType": "uint256",
          "name": "_finePercentage",
          "type": "uint256"
        }
      ],
      "stateMutability": "nonpayable",
      "type": "constructor"
    },
    {
      "anonymous": false,
      "inputs": [
        {
          "indexed": true,
          "internalType": "uint256",
          "name": "orderId",
          "type": "uint256"
        },
        {
          "indexed": false,
          "internalType": "address",
          "name": "seller",
          "type": "address"
        },
        {
          "indexed": false,
          "internalType": "uint256",
          "name": "amount",
          "type": "uint256"
        }
      ],
      "name": "OrderDispatched",
      "type": "event"
    },
    {
      "anonymous": false,
      "inputs": [
        {
          "indexed": true,
          "internalType": "uint256",
          "name": "orderId",
          "type": "uint256"
        },
        {
          "indexed": true,
          "internalType": "uint256",
          "name": "productId",
          "type": "uint256"
        },
        {
          "indexed": false,
          "internalType": "string",
          "name": "productName",
          "type": "string"
        },
        {
          "indexed": false,
          "internalType": "uint256",
          "name": "quantity",
          "type": "uint256"
        },
        {
          "indexed": false,
          "internalType": "address",
          "name": "buyer",
          "type": "address"
        },
        {
          "indexed": false,
          "internalType": "uint256",
          "name": "dispatchTime",
          "type": "uint256"
        }
      ],
      "name": "OrderPlaced",
      "type": "event"
    },
    {
      "anonymous": false,
      "inputs": [
        {
          "indexed": true,
          "internalType": "uint256",
          "name": "orderId",
          "type": "uint256"
        },
        {
          "indexed": false,
          "internalType": "address",
          "name": "buyer",
          "type": "address"
        },
        {
          "indexed": false,
          "internalType": "uint256",
          "name": "amount",
          "type": "uint256"
        }
      ],
      "name": "OrderRejected",
      "type": "event"
    },
    {
      "inputs": [
        {
          "internalType": "uint256",
          "name": "_productId",
          "type": "uint256"
        }
      ],
      "name": "acceptOrder",
      "outputs": [],
      "stateMutability": "nonpayable",
      "type": "function"
    },
    {
      "inputs": [
        {
          "internalType": "uint256",
          "name": "_productId",
          "type": "uint256"
        }
      ],
      "name": "dispatchOrder",
      "outputs": [],
      "stateMutability": "nonpayable",
      "type": "function"
    },
    {
      "inputs": [],
      "name": "finePercentage",
      "outputs": [
        {
          "internalType": "uint256",
          "name": "",
          "type": "uint256"
        }
      ],
      "stateMutability": "view",
      "type": "function"
    },
    {
      "inputs": [
        {
          "internalType": "uint256",
          "name": "",
          "type": "uint256"
        }
      ],
      "name": "orderAmounts",
      "outputs": [
        {
          "internalType": "uint256",
          "name": "",
          "type": "uint256"
        }
      ],
      "stateMutability": "view",
      "type": "function"
    },
    {
      "inputs": [],
      "name": "orderCount",
      "outputs": [
        {
          "internalType": "uint256",
          "name": "",
          "type": "uint256"
        }
      ],
      "stateMutability": "view",
      "type": "function"
    },
    {
      "inputs": [
        {
          "internalType": "uint256",
          "name": "",
          "type": "uint256"
        }
      ],
      "name": "orders",
      "outputs": [
        {
          "internalType": "uint256",
          "name": "orderId",
          "type": "uint256"
        },
        {
          "internalType": "uint256",
          "name": "productId",
          "type": "uint256"
        },
        {
          "internalType": "uint256",
          "name": "quantity",
          "type": "uint256"
        },
        {
          "internalType": "uint256",
          "name": "dispatchTime",
          "type": "uint256"
        },
        {
          "internalType": "address",
          "name": "buyer",
          "type": "address"
        },
        {
          "internalType": "address",
          "name": "seller",
          "type": "address"
        },
        {
          "internalType": "bool",
          "name": "dispatched",
          "type": "bool"
        },
        {
          "internalType": "bool",
          "name": "rejected",
          "type": "bool"
        }
      ],
      "stateMutability": "view",
      "type": "function"
    },
    {
      "inputs": [
        {
          "internalType": "uint256",
          "name": "_productId",
          "type": "uint256"
        },
        {
          "internalType": "uint256",
          "name": "buyrate",
          "type": "uint256"
        },
        {
          "internalType": "uint256",
          "name": "_quantity",
          "type": "uint256"
        },
        {
          "internalType": "uint256",
          "name": "_dispatchTime",
          "type": "uint256"
        }
      ],
      "name": "placeOrder",
      "outputs": [],
      "stateMutability": "payable",
      "type": "function"
    },
    {
      "inputs": [
        {
          "internalType": "uint256",
          "name": "_productId",
          "type": "uint256"
        }
      ],
      "name": "rejectOrder",
      "outputs": [],
      "stateMutability": "nonpayable",
      "type": "function"
    }
  ],
  "bytecode": "0x60806040523480156200001157600080fd5b50604051620016a9380380620016a983398181016040528101906200003791906200008d565b60006002819055508060038190555050620000bf565b600080fd5b6000819050919050565b620000678162000052565b81146200007357600080fd5b50565b60008151905062000087816200005c565b92915050565b600060208284031215620000a657620000a56200004d565b5b6000620000b68482850162000076565b91505092915050565b6115da80620000cf6000396000f3fe60806040526004361061007b5760003560e01c806398939e4a1161004e57806398939e4a1461013c578063a85c38ef14610165578063a8ef32fb146101a9578063ef18e9ed146101c55761007b565b80632453ffa81461008057806324f63894146100ab5780635cb9cdef146100d45780637417279514610111575b600080fd5b34801561008c57600080fd5b506100956101ee565b6040516100a29190610c61565b60405180910390f35b3480156100b757600080fd5b506100d260048036038101906100cd9190610cad565b6101f4565b005b3480156100e057600080fd5b506100fb60048036038101906100f69190610cad565b6103f1565b6040516101089190610c61565b60405180910390f35b34801561011d57600080fd5b50610126610409565b6040516101339190610c61565b60405180910390f35b34801561014857600080fd5b50610163600480360381019061015e9190610cad565b61040f565b005b34801561017157600080fd5b5061018c60048036038101906101879190610cad565b610750565b6040516101a0989796959493929190610d36565b60405180910390f35b6101c360048036038101906101be9190610db4565b6107f2565b005b3480156101d157600080fd5b506101ec60048036038101906101e79190610cad565b610a16565b005b60025481565b600080600083815260200190815260200160002090508060040160009054906101000a900473ffffffffffffffffffffffffffffffffffffffff1673ffffffffffffffffffffffffffffffffffffffff163373ffffffffffffffffffffffffffffffffffffffff160361029c576040517f08c379a000000000000000000000000000000000000000000000000000000000815260040161029390610e9e565b60405180910390fd5b8060050160159054906101000a900460ff16156102ee576040517f08c379a00000000000000000000000000000000000000000000000000000000081526004016102e590610f0a565b60405180910390fd5b60006001600084815260200190815260200160002054905060018260050160156101000a81548160ff0219169083151502179055508160040160009054906101000a900473ffffffffffffffffffffffffffffffffffffffff1673ffffffffffffffffffffffffffffffffffffffff166108fc829081150290604051600060405180830381858888f1935050505015801561038d573d6000803e3d6000fd5b50827fd52667eeb72001bfaeede8adb87880d31ee34c7842cbd0a3a21bd8112746cafb8360040160009054906101000a900473ffffffffffffffffffffffffffffffffffffffff16836040516103e4929190610f2a565b60405180910390a2505050565b60016020528060005260406000206000915090505481565b60035481565b600080600083815260200190815260200160002090503373ffffffffffffffffffffffffffffffffffffffff168160050160009054906101000a900473ffffffffffffffffffffffffffffffffffffffff1673ffffffffffffffffffffffffffffffffffffffff16146104b7576040517f08c379a00000000000000000000000000000000000000000000000000000000081526004016104ae90610fc5565b60405180910390fd5b8060050160149054906101000a900460ff1615610509576040517f08c379a000000000000000000000000000000000000000000000000000000000815260040161050090611031565b60405180910390fd5b8060050160159054906101000a900460ff161561055b576040517f08c379a00000000000000000000000000000000000000000000000000000000081526004016105529061109d565b60405180910390fd5b600060016000848152602001908152602001600020549050804710156105b6576040517f08c379a00000000000000000000000000000000000000000000000000000000081526004016105ad90611109565b60405180910390fd5b600082600301544211156105ef576064600354836105d49190611158565b6105de91906111c9565b905080826105ec91906111fa565b91505b8260050160009054906101000a900473ffffffffffffffffffffffffffffffffffffffff1673ffffffffffffffffffffffffffffffffffffffff166108fc839081150290604051600060405180830381858888f19350505050158015610659573d6000803e3d6000fd5b5060018360050160146101000a81548160ff021916908315150217905550837f59e264fdca8aefec32456c614ab1fbf9d8ee1f192e3c3389cddde8296e1f94ff8460050160009054906101000a900473ffffffffffffffffffffffffffffffffffffffff16846040516106cd929190610f2a565b60405180910390a2600081111561074a578260040160009054906101000a900473ffffffffffffffffffffffffffffffffffffffff1673ffffffffffffffffffffffffffffffffffffffff166108fc829081150290604051600060405180830381858888f19350505050158015610748573d6000803e3d6000fd5b505b50505050565b60006020528060005260406000206000915090508060000154908060010154908060020154908060030154908060040160009054906101000a900473ffffffffffffffffffffffffffffffffffffffff16908060050160009054906101000a900473ffffffffffffffffffffffffffffffffffffffff16908060050160149054906101000a900460ff16908060050160159054906101000a900460ff16905088565b42816107fe919061122e565b81610809919061122e565b90506000821161084e576040517f08c379a0000000000000000000000000000000000000000000000000000000008152600401610845906112d4565b60405180910390fd5b428111610890576040517f08c379a000000000000000000000000000000000000000000000000000000000815260040161088790611366565b60405180910390fd5b6000828461089e9190611158565b9050803410156108e3576040517f08c379a00000000000000000000000000000000000000000000000000000000081526004016108da906113d2565b60405180910390fd5b600260008154809291906108f6906113f2565b919050555060008060008781526020019081526020016000209050858160000181905550858160010181905550838160020181905550828160030181905550338160040160006101000a81548173ffffffffffffffffffffffffffffffffffffffff021916908373ffffffffffffffffffffffffffffffffffffffff16021790555060008160050160006101000a81548173ffffffffffffffffffffffffffffffffffffffff021916908373ffffffffffffffffffffffffffffffffffffffff16021790555060008160050160146101000a81548160ff02191690831515021790555060008160050160156101000a81548160ff021916908315150217905550816001600088815260200190815260200160002081905550505050505050565b60008060008381526020019081526020016000209050600073ffffffffffffffffffffffffffffffffffffffff168160040160009054906101000a900473ffffffffffffffffffffffffffffffffffffffff1673ffffffffffffffffffffffffffffffffffffffff1603610abf576040517f08c379a0000000000000000000000000000000000000000000000000000000008152600401610ab690611486565b60405180910390fd5b8060040160009054906101000a900473ffffffffffffffffffffffffffffffffffffffff1673ffffffffffffffffffffffffffffffffffffffff163373ffffffffffffffffffffffffffffffffffffffff1603610b51576040517f08c379a0000000000000000000000000000000000000000000000000000000008152600401610b48906114f2565b60405180910390fd5b600073ffffffffffffffffffffffffffffffffffffffff168160050160009054906101000a900473ffffffffffffffffffffffffffffffffffffffff1673ffffffffffffffffffffffffffffffffffffffff1614610be4576040517f08c379a0000000000000000000000000000000000000000000000000000000008152600401610bdb90611584565b60405180910390fd5b60008160050160156101000a81548160ff021916908315150217905550338160050160006101000a81548173ffffffffffffffffffffffffffffffffffffffff021916908373ffffffffffffffffffffffffffffffffffffffff1602179055505050565b6000819050919050565b610c5b81610c48565b82525050565b6000602082019050610c766000830184610c52565b92915050565b600080fd5b610c8a81610c48565b8114610c9557600080fd5b50565b600081359050610ca781610c81565b92915050565b600060208284031215610cc357610cc2610c7c565b5b6000610cd184828501610c98565b91505092915050565b600073ffffffffffffffffffffffffffffffffffffffff82169050919050565b6000610d0582610cda565b9050919050565b610d1581610cfa565b82525050565b60008115159050919050565b610d3081610d1b565b82525050565b600061010082019050610d4c600083018b610c52565b610d59602083018a610c52565b610d666040830189610c52565b610d736060830188610c52565b610d806080830187610d0c565b610d8d60a0830186610d0c565b610d9a60c0830185610d27565b610da760e0830184610d27565b9998505050505050505050565b60008060008060808587031215610dce57610dcd610c7c565b5b6000610ddc87828801610c98565b9450506020610ded87828801610c98565b9350506040610dfe87828801610c98565b9250506060610e0f87828801610c98565b91505092959194509250565b600082825260208201905092915050565b7f4f6e6c79207468652073656c6c65722063616e2072656a65637420746865206f60008201527f7264657200000000000000000000000000000000000000000000000000000000602082015250565b6000610e88602483610e1b565b9150610e9382610e2c565b604082019050919050565b60006020820190508181036000830152610eb781610e7b565b9050919050565b7f4f7264657220616c72656164792072656a656374656400000000000000000000600082015250565b6000610ef4601683610e1b565b9150610eff82610ebe565b602082019050919050565b60006020820190508181036000830152610f2381610ee7565b9050919050565b6000604082019050610f3f6000830185610d0c565b610f4c6020830184610c52565b9392505050565b7f4f6e6c79207468652073656c6c65722063616e2064697370617463682074686560008201527f206f726465720000000000000000000000000000000000000000000000000000602082015250565b6000610faf602683610e1b565b9150610fba82610f53565b604082019050919050565b60006020820190508181036000830152610fde81610fa2565b9050919050565b7f4f7264657220616c726561647920646973706174636865640000000000000000600082015250565b600061101b601883610e1b565b915061102682610fe5565b602082019050919050565b6000602082019050818103600083015261104a8161100e565b9050919050565b7f4f7264657220686173206265656e2072656a6563746564000000000000000000600082015250565b6000611087601783610e1b565b915061109282611051565b602082019050919050565b600060208201905081810360008301526110b68161107a565b9050919050565b7f496e73756666696369656e7420636f6e74726163742062616c616e6365000000600082015250565b60006110f3601d83610e1b565b91506110fe826110bd565b602082019050919050565b60006020820190508181036000830152611122816110e6565b9050919050565b7f4e487b7100000000000000000000000000000000000000000000000000000000600052601160045260246000fd5b600061116382610c48565b915061116e83610c48565b925082820261117c81610c48565b9150828204841483151761119357611192611129565b5b5092915050565b7f4e487b7100000000000000000000000000000000000000000000000000000000600052601260045260246000fd5b60006111d482610c48565b91506111df83610c48565b9250826111ef576111ee61119a565b5b828204905092915050565b600061120582610c48565b915061121083610c48565b925082820390508181111561122857611227611129565b5b92915050565b600061123982610c48565b915061124483610c48565b925082820190508082111561125c5761125b611129565b5b92915050565b7f5175616e74697479206d7573742062652067726561746572207468616e207a6560008201527f726f000000000000000000000000000000000000000000000000000000000000602082015250565b60006112be602283610e1b565b91506112c982611262565b604082019050919050565b600060208201905081810360008301526112ed816112b1565b9050919050565b7f44697370617463682074696d65206d75737420626520696e207468652066757460008201527f7572650000000000000000000000000000000000000000000000000000000000602082015250565b6000611350602383610e1b565b915061135b826112f4565b604082019050919050565b6000602082019050818103600083015261137f81611343565b9050919050565b7f496e73756666696369656e742066756e64730000000000000000000000000000600082015250565b60006113bc601283610e1b565b91506113c782611386565b602082019050919050565b600060208201905081810360008301526113eb816113af565b9050919050565b60006113fd82610c48565b91507fffffffffffffffffffffffffffffffffffffffffffffffffffffffffffffffff820361142f5761142e611129565b5b600182019050919050565b7f496e76616c6964206f7264657220494400000000000000000000000000000000600082015250565b6000611470601083610e1b565b915061147b8261143a565b602082019050919050565b6000602082019050818103600083015261149f81611463565b9050919050565b7f42757965722063616e6e6f742061636365707420746865206f72646572000000600082015250565b60006114dc601d83610e1b565b91506114e7826114a6565b602082019050919050565b6000602082019050818103600083015261150b816114cf565b9050919050565b7f4f7264657220616c726561647920616363657074656420627920616e6f74686560008201527f722073656c6c6572000000000000000000000000000000000000000000000000602082015250565b600061156e602883610e1b565b915061157982611512565b604082019050919050565b6000602082019050818103600083015261159d81611561565b905091905056fea26469706673582212201409d0d6ff2b560ae25fbcf4c98242c35dcddecefb38f695b9c1f451a812ba3564736f6c63430008110033",
  "linkReferences": {},
  "deployedLinkReferences": {}
}