{
  "_format": "hh-sol-artifact-1",
  "contractName": "SupplyManagementSystem",
  "sourceName": "contracts/SupplyManagementSystem.sol",
  "abi": [
    {
      "inputs": [
        {
          "internalType": "string",
          "name": "_productid",
          "type": "string"
        },
        {
          "internalType": "string",
          "name": "name",
          "type": "string"
        },
        {
          "internalType": "string",
          "name": "typee",
          "type": "string"
        },
        {
          "internalType": "uint256",
          "name": "quantity",
          "type": "uint256"
        },
        {
          "internalType": "uint256",
          "name": "buyrate",
          "type": "uint256"
        }
      ],
      "name": "addTransaction",
      "outputs": [],
      "stateMutability": "payable",
      "type": "function"
    },
    {
      "inputs": [
        {
          "internalType": "string",
          "name": "_productid",
          "type": "string"
        },
        {
          "internalType": "string",
          "name": "name",
          "type": "string"
        },
        {
          "internalType": "string",
          "name": "typee",
          "type": "string"
        },
        {
          "internalType": "uint256",
          "name": "buyrate",
          "type": "uint256"
        },
        {
          "internalType": "uint256",
          "name": "quantity",
          "type": "uint256"
        }
      ],
      "name": "buyProduct",
      "outputs": [],
      "stateMutability": "payable",
      "type": "function"
    },
    {
      "inputs": [],
      "name": "generateRandomValue",
      "outputs": [
        {
          "internalType": "uint256",
          "name": "",
          "type": "uint256"
        }
      ],
      "stateMutability": "view",
      "type": "function"
    },
    {
      "inputs": [],
      "name": "totalTransactions",
      "outputs": [
        {
          "internalType": "uint256",
          "name": "",
          "type": "uint256"
        }
      ],
      "stateMutability": "view",
      "type": "function"
    }
  ],
  "bytecode": "0x608060405234801561001057600080fd5b50610b60806100206000396000f3fe60806040526004361061003f5760003560e01c8063749ece4f14610044578063b9a6003814610060578063c6bab2671461008b578063d03c7ae0146100b6575b600080fd5b61005e6004803603810190610059919061057d565b6100df565b005b34801561006c57600080fd5b50610075610354565b604051610082919061065b565b60405180910390f35b34801561009757600080fd5b506100a061035a565b6040516100ad919061065b565b60405180910390f35b3480156100c257600080fd5b506100dd60048036038101906100d8919061057d565b610379565b005b600081836100ed91906106a5565b905080341015610132576040517f08c379a000000000000000000000000000000000000000000000000000000000815260040161012990610744565b60405180910390fd5b600061013c61035a565b90506001810361027b576000735b38da6a701c568545dcfcb03fcb875f56beddc490508073ffffffffffffffffffffffffffffffffffffffff166108fc849081150290604051600060405180830381858888f193505050501580156101a5573d6000803e3d6000fd5b5060405180608001604052808981526020018881526020018781526020016040518060400160405280600781526020017f416365707465640000000000000000000000000000000000000000000000000081525081525060018960405161020c91906107d5565b9081526020016040518091039020600082015181600001908161022f91906109f8565b50602082015181600101908161024591906109f8565b50604082015181600201908161025b91906109f8565b50606082015181600301908161027191906109f8565b509050505061034b565b60405180608001604052808881526020018781526020018681526020016040518060400160405280600881526020017f52656a65637465640000000000000000000000000000000000000000000000008152508152506001886040516102e191906107d5565b9081526020016040518091039020600082015181600001908161030491906109f8565b50602082015181600101908161031a91906109f8565b50604082015181600201908161033091906109f8565b50606082015181600301908161034691906109f8565b509050505b50505050505050565b60005481565b600080439050600060028261036f9190610af9565b9050809250505090565b6103b8836040518060400160405280600281526020017f696e0000000000000000000000000000000000000000000000000000000000008152506103d2565b156103cb576103ca85858584866100df565b5b5050505050565b60008180519060200120838051906020012014905092915050565b6000604051905090565b600080fd5b600080fd5b600080fd5b600080fd5b6000601f19601f8301169050919050565b7f4e487b7100000000000000000000000000000000000000000000000000000000600052604160045260246000fd5b6104548261040b565b810181811067ffffffffffffffff821117156104735761047261041c565b5b80604052505050565b60006104866103ed565b9050610492828261044b565b919050565b600067ffffffffffffffff8211156104b2576104b161041c565b5b6104bb8261040b565b9050602081019050919050565b82818337600083830152505050565b60006104ea6104e584610497565b61047c565b90508281526020810184848401111561050657610505610406565b5b6105118482856104c8565b509392505050565b600082601f83011261052e5761052d610401565b5b813561053e8482602086016104d7565b91505092915050565b6000819050919050565b61055a81610547565b811461056557600080fd5b50565b60008135905061057781610551565b92915050565b600080600080600060a08688031215610599576105986103f7565b5b600086013567ffffffffffffffff8111156105b7576105b66103fc565b5b6105c388828901610519565b955050602086013567ffffffffffffffff8111156105e4576105e36103fc565b5b6105f088828901610519565b945050604086013567ffffffffffffffff811115610611576106106103fc565b5b61061d88828901610519565b935050606061062e88828901610568565b925050608061063f88828901610568565b9150509295509295909350565b61065581610547565b82525050565b6000602082019050610670600083018461064c565b92915050565b7f4e487b7100000000000000000000000000000000000000000000000000000000600052601160045260246000fd5b60006106b082610547565b91506106bb83610547565b92508282026106c981610547565b915082820484148315176106e0576106df610676565b5b5092915050565b600082825260208201905092915050565b7f496e73756666696369656e742062616c616e6365000000000000000000000000600082015250565b600061072e6014836106e7565b9150610739826106f8565b602082019050919050565b6000602082019050818103600083015261075d81610721565b9050919050565b600081519050919050565b600081905092915050565b60005b8381101561079857808201518184015260208101905061077d565b60008484015250505050565b60006107af82610764565b6107b9818561076f565b93506107c981856020860161077a565b80840191505092915050565b60006107e182846107a4565b915081905092915050565b7f4e487b7100000000000000000000000000000000000000000000000000000000600052602260045260246000fd5b6000600282049050600182168061083357607f821691505b602082108103610846576108456107ec565b5b50919050565b60008190508160005260206000209050919050565b60006020601f8301049050919050565b600082821b905092915050565b6000600883026108ae7fffffffffffffffffffffffffffffffffffffffffffffffffffffffffffffffff82610871565b6108b88683610871565b95508019841693508086168417925050509392505050565b6000819050919050565b60006108f56108f06108eb84610547565b6108d0565b610547565b9050919050565b6000819050919050565b61090f836108da565b61092361091b826108fc565b84845461087e565b825550505050565b600090565b61093861092b565b610943818484610906565b505050565b5b818110156109675761095c600082610930565b600181019050610949565b5050565b601f8211156109ac5761097d8161084c565b61098684610861565b81016020851015610995578190505b6109a96109a185610861565b830182610948565b50505b505050565b600082821c905092915050565b60006109cf600019846008026109b1565b1980831691505092915050565b60006109e883836109be565b9150826002028217905092915050565b610a0182610764565b67ffffffffffffffff811115610a1a57610a1961041c565b5b610a24825461081b565b610a2f82828561096b565b600060209050601f831160018114610a625760008415610a50578287015190505b610a5a85826109dc565b865550610ac2565b601f198416610a708661084c565b60005b82811015610a9857848901518255600182019150602085019450602081019050610a73565b86831015610ab55784890151610ab1601f8916826109be565b8355505b6001600288020188555050505b505050505050565b7f4e487b7100000000000000000000000000000000000000000000000000000000600052601260045260246000fd5b6000610b0482610547565b9150610b0f83610547565b925082610b1f57610b1e610aca565b5b82820690509291505056fea264697066735822122071896ee6aca1ef2ab158d831628416280c4eaa2b349d0e1fd629e95ee25faf4364736f6c63430008110033",
  "linkReferences": {},
  "deployedLinkReferences": {}
}